:100000000C942E000C946B020C946B020C946B02FB
:100010000C946B020C946B020C946B020C946B02AC
:100020000C946B020C946B020C946B020C946B029C
:100030000C946B020C946B020C946B020C946B028C
:100040000C946B020C946B020C946B020C946B027C
:100050000C946B02006000780004DA0011241FBECB
:10006000CFE5D8E0DEBFCDBFE4E5F0E040E017C06B
:10007000B591A59135912591059107FD0CC09591FC
:100080008591EF01F92FE82F05900D92A217B30784
:10009000D9F7FE0104C01D92A217B307E1F7EB35B3
:1000A000F40731F70E9460020C945600F894FFCFD9
:1000B000813001F130F08230B1F1833009F44CC06D
:1000C0000895433059F42AB381E090E002C0880FCC
:1000D000991F6A95E2F7822B8ABB08952AB381E0C3
:1000E00090E002C0880F991F6A95E2F780958223FD
:1000F0008ABB0895433059F427B381E090E002C0F1
:10010000880F991F6A95E2F7822B87BB089527B362
:1001100081E090E002C0880F991F6A95E2F7809510
:10012000822387BB0895433059F424B381E090E0E3
:1001300002C0880F991F6A95E2F7822B84BB08954D
:1001400024B381E090E002C0880F991F6A95E2F71E
:100150008095822384BB0895433059F421B381E014
:1001600090E002C0880F991F6A95E2F7822B81BB4D
:10017000089521B381E090E002C0880F991F6A952D
:0A018000E2F78095822381BB089509
:10018A00813001F130F08230B1F1833009F44CC092
:10019A000895413059F42BB381E090E002C0880FF2
:1001AA00991F6A95E2F7822B8BBB08952BB381E0E6
:1001BA0090E002C0880F991F6A95E2F78095822322
:1001CA008BBB0895413059F428B381E090E002C016
:1001DA00880F991F6A95E2F7822B88BB089528B386
:1001EA0081E090E002C0880F991F6A95E2F7809536
:1001FA00822388BB0895413059F425B381E090E009
:10020A0002C0880F991F6A95E2F7822B85BB089571
:10021A0025B381E090E002C0880F991F6A95E2F742
:10022A008095822385BB0895413059F422B381E039
:10023A0090E002C0880F991F6A95E2F7822B82BB71
:10024A00089522B381E090E002C0880F991F6A9551
:0A025A00E2F78095822382BB08952D
:10026400DF92EF92FF920F931F93CF93DF93D0E02F
:100274000F2EF4E2DF2EF02D3FC0ED2EF12CF7010E
:10028400EC58FF4F608140E081E00E94C500C0E06F
:1002940028C00C2F10E0F801E059FF4F608182E084
:1002A4000E94050281111CC02FE785EB91E02150CB
:1002B40080409040E1F700C00000F801E059FF4F92
:1002C400608182E00E94050281110AC0F801EE0FEC
:1002D400FF1FEE0FFF1FE05AFF4FEE0DFF1DD080F2
:1002E400CF5FC430B0F2F701EC58FF4F608141E0BA
:1002F40081E00E94C500DF5FD43008F4BECF8D2DAD
:10030400DF91CF911F910F91FF90EF90DF900895AF
:100314001F93CF93DF93182FD0E036C040E061E005
:1003240081E00E94C50041E062E081E00E94C500D6
:10033400CDEC1C9FC12D1124C695C695C6958C2F56
:100344008295807F8BBB8FE39FE10197F1F700C01B
:10035400000041E061E081E00E94C50040E062E00D
:1003640081E00E94C500CC0F8C2F880F880FC80F26
:10037400812F8C1B8295807F8BBB8FE39FE101973C
:10038400F1F700C00000DF5FD43140F2DF91CF917C
:040394001F91089518
:1003980043E064E081E00E94580043E065E081E0CA
:1003A8000E94580043E066E081E00E94580043E064
:1003B80067E081E00E94580041E064E081E00E942B
:1003C800C50041E065E081E00E94C50041E066E0CB
:1003D80081E00E94C50041E067E081E00E94C5001D
:1003E80063E082E00E94510264E082E00E945102D0
:1003F80065E082E00E94510266E082E00E945102BC
:02040800089555
:10040A00813079F028F08230A9F08330E1F024C0FD
:10041A0089B390E002C0959587956A95E2F7817055
:10042A00089586B390E002C0959587956A95E2F79C
:10043A008170089583B390E002C0959587956A9577
:10044A00E2F78170089580B390E002C09595879590
:0A045A006A95E2F781700895089595
:1004640043E064E080E00E94580043E065E080E0FF
:100474000E94580043E066E080E00E94580043E098
:1004840067E080E00E94580043E061E081E00E9460
:0E049400580043E062E081E00E9458000895A5
:1004A200CF93DF93C82FD62F42E00E94580041E03D
:0E04B2006D2F8C2F0E94C500DF91CF91089511
:1004C0000E94CC010E9432020E9432018432E1F388
:0604D0000E948A01F9CF31
:0404D6000C94000082
:1004DA003132334134353642373839432A302344AE
:0404EA0003040506FC
:0404EE0004050607F4
:00000001FF
