S01000004D794176724C69622E737265630E
S11300000C942A000C9447000C9447000C9447006D
S11300100C9459070C9408070C9447000C94AE06F2
S11300200C9447000C9454060C9403060C9447005B
S11300300C9447000C9447000C9447000C94470020
S11300400C9447000C9447000C9447000C94470010
S11300500C94470011241FBECFE5D8E0DEBFCDBF0E
S113006010E0A0E6B0E0EAE0F0E102C005900D92F5
S1130070A83DB107D9F720E0A8EDB0E001C01D927A
S1130080AC3FB207E1F70E941E030C9403080C94E2
S11300900000482F62E080E00E94AF0408954FEF13
S11300A063E083E00E9415044FEF62E082E00E9467
S11300B015044FEF67E082E00E9415040895CF9382
S11300C0C82F482F63E083E00E94AF044C2F62E006
S11300D082E00E94AF044C2F67E082E00E94AF04EC
S11300E0CF910895813021F48AE50E941103089587
S11300F0811102C00E941103089580E00E940B0444
S11301009C01ABEABAEA0E94E00796958795909124
S1130110D800890F8093D80080E00E940B049C01D2
S1130120ABEABAEA0E94E007969587959091D800C9
S1130130890F8093D80080E00E940B049C01ABEAF5
S1130140BAEA0E94E007969587959091D800890FA6
S11301508093D80080E00E940B049C01ABEABAEAC9
S11301600E94E007969587959091D800890F9DECA1
S1130170899F812D1124869586958093D8000895B2
S11301804FEF63E082E00E9415044FEF64E082E0E9
S11301900E9415044FEF65E082E00E9415044FEFC2
S11301A066E082E00E94150440E064E081E00E9481
S11301B0150440E065E081E00E94150440E066E03B
S11301C081E00E94150440E067E081E00E9415048C
S11301D04FEF63E082E00E94AF044FEF64E082E0FF
S11301E00E94AF044FEF65E082E00E94AF044FEF3E
S11301F066E082E00E94AF0464E081E00E945D0555
S113020065E081E00E945D0566E081E00E945D0595
S113021067E081E00E945D050895DF92EF92FF920E
S11302200F931F93CF93DF930F2EF0E6EF2EF0E0A2
S1130230FF2EF02DD12CD3E040E06D2F82E00E9400
S1130240AF048701C4E06C2F81E00E94B4058111E2
S113025008C06C2F81E00E94B4058823D1F3F80113
S1130260D080CF5F0C5F1F4FC83069F74FEF6D2F01
S113027082E00E94AF04DF5FFFEFEF1AFF0AD7307E
S1130280D9F68D2DDF91CF911F910F91FF90EF90B3
S1130290DF900895CF93C82F40E061E081E00E9491
S11302A0AF0440E062E081E00E94AF0440E063E01C
S11302B081E00E94AF048BB39C2F907F8F70892BB9
S11302C08BBB4FEF63E081E00E94AF048FE99FE0B6
S11302D00197F1F700C0000040E063E081E00E9474
S11302E0AF042BB330E1C39FC0011124922F9F7040
S11302F0892B8BBB4FEF63E081E00E94AF048FE951
S11303009FE00197F1F700C0000040E063E081E066
S11303100E94AF048FE19EE40197F1F700C0000052
S1130320CF9108954FEF61E081E00E9415044FEFF3
S113033062E081E00E9415044FEF63E081E00E94D7
S113034015044FEF64E080E00E9415044FEF65E070
S113035080E00E9415044FEF66E080E00E941504DF
S11303604FEF67E080E00E9415042FEF81EE94E0E8
S1130370215080409040E1F700C0000083E30E94D8
S11303804A0182E30E944A0188E20E944A0181E014
S11303900E944A0182E00E944A0186E00E944A01CA
S11303A08CE00E944A010895CF93C82F4FEF61E07B
S11303B081E00E94AF0440E062E081E00E94AF046B
S11303C040E063E081E00E94AF048BB39C2F907FF8
S11303D08F70892B8BBB4FEF63E081E00E94AF04E9
S11303E08FE99FE00197F1F700C0000040E063E06F
S11303F081E00E94AF042BB330E1C39FC0011124FC
S1130400922F9F70892B8BBB4FEF63E081E00E949A
S1130410AF048FE99FE00197F1F700C0000040E0CE
S113042063E081E00E94AF048FE19EE40197F1F75D
S113043000C00000CF9108950F931F93CF93FC0148
S11304408081882359F08F01C0E00E94D401CF5FDE
S1130450F801EC0FF11D80818111F7CFCF911F912D
S11304600F9108952F923F924F925F926F927F92D5
S11304708F929F92AF92BF92CF92DF92EF92FF92B0
S11304800F931F93CF93DF9300D000D01F92CDB76B
S1130490DEB72B013C01672B682B692B21F480E329
S11304A00E94D40185C0812C912C54018394C12CC9
S11304B0D12C7601CC0CDD1CEE1CFF1CD701C6012F
S11304C0880F991FAA1FBB1F880F991FAA1FBB1F44
S11304D0C80ED91EEA1EFB1EC301B2012AE030E099
S11304E040E050E00E94BE07C60ED71EE81EF91E6B
S11304F0C114D104E104F10491F4880C991CAA1CE0
S1130500BB1CD501C401880F991FAA1FBB1F880FEC
S1130510991FAA1FBB1F880E991EAA1EBB1EC301CA
S1130520B2012AE030E040E050E00E94BE07290119
S11305303A01232B242B252B09F0BCCFC114D10461
S1130540E104F104A9F1412C512C3201282C9982A7
S1130550AA82BB82312CC701B6012AE030E040E018
S113056050E00E94BE07022F132F4D835C8380E36B
S1130570860F0E94D401C02ED12EED80FC80C114C0
S1130580D104E104F10479F48AE088169104A10409
S1130590B10448F0C22CD980EA80FB8044244394FF
S11305A0512C612C732C4C145D046E047F0499F659
S11305B00F900F900F900F900F90DF91CF911F919C
S11305C00F91FF90EF90DF90CF90BF90AF909F90EE
S11305D08F907F906F905F904F903F902F900895F1
S11305E0CF93DF9300D0CDB7DEB790E8998390EC3A
S11305F09A83FE01E80FF11D8181860F0E944A0152
S11306000F900F90DF91CF9108958D9A1DBC1CBC63
S113061083E187BD87E886BD82E88FBD8BE18EBD0F
S113062008952BEF829FC00111246AE570E00E94B7
S1130630AA0768507F4F7BBD6ABD08950E9492014E
S11306400E94C0000E944F000E9405030E94FE0306
S11306504FEF62E080E00E94150440E060E080E03B
S11306600E9415044FEF63E080E00E941504C4E388
S11306700FEFD02F0E940D01182F0E947D00809350
S1130680D8006DE080E00E94F00284E50E94D4016D
S11306906EE080E00E94F0026091D80070E080E09B
S11306A090E00E9432028091D800833160F0D093B0
S11306B0E3004D2F63E080E00E94AF044D2F62E021
S11306C080E00E94AF048091D800803180F4809152
S11306D0E300882361F040E063E080E00E94AF041F
S11306E040E062E080E00E94AF041092E300C23375
S11306F009F442C01CF4C133F1F0BCCFC33309F494
S11307005CC0C43309F0B6CF60E080E00E94F00220
S11307108CE790E00E941C0260E081E00E94F002FD
S113072089E890E00E941C028FEC810F833008F06E
S1130730A1CFC12F9FCF60E080E00E94F0028AE940
S113074090E00E941C0260E081E00E94F00288EACE
S113075090E00E941C021F3459F0123529F019341C
S113076009F088CFC4E386CF802F0E94490082CF4E
S113077080E00E9449007ECF60E080E00E94F002A9
S113078089EB90E00E941C0260E081E00E94F0028C
S113079088EA90E00E941C021F3459F0123529F0B7
S11307A0193409F067CFC4E365CF80E00E9472007A
S11307B061CF81E00E9472005DCF60E080E00E9422
S11307C0F00288EC90E00E941C0260E081E00E944C
S11307D0F00288EA90E00E941C021F3459F012359E
S11307E029F0193409F046CFC4E344CF802F0E9486
S11307F05F0040CF80E00E945F003CCF87B18F73E1
S1130800806487B93D9887E086B9359A80B78F713F
S113081080BF379A089597B1907E892B87B9369A0D
S1130820349BFECF84B195B10895442321F04F3F0A
S113083009F44BC008956830C0F5813091F028F078
S11308408230D9F0833029F108952AB381E090E011
S113085002C0880F991F6A95E2F7809582238ABBAC
S1130860089527B381E090E002C0880F991F6A952C
S1130870E2F78095822387BB089524B381E090E05A
S113088002C0880F991F6A95E2F78095822384BB82
S1130890089521B381E090E002C0880F991F6A9502
S11308A0E2F78095822381BB0895813041F028F0DE
S11308B0823039F0833039F008951ABA089517BA9E
S11308C0089514BA089511BA08956830A0F58130D6
S11308D089F028F08230C9F0833011F108952AB3E9
S11308E081E090E002C0880F991F6A95E2F7822B9D
S11308F08ABB089527B381E090E002C0880F991F56
S11309006A95E2F7822B87BB089524B381E090E0D7
S113091002C0880F991F6A95E2F7822B84BB089561
S113092021B381E090E002C0880F991F6A95E2F735
S1130930822B81BB0895813049F028F0823049F040
S1130940833051F008958FEF8ABB08958FEF87BBF2
S113095008958FEF84BB08958FEF81BB0895CF93E3
S1130960DF93C82FD62F442321F04F3F09F452C000
S1130970A1C06830D8F54FEF0E941504C13091F042
S113098028F0C230D9F0C33029F194C02BB381E0F0
S113099090E002C0880F991FDA95E2F780958223D0
S11309A08BBB88C028B381E090E002C0880F991FF8
S11309B0DA95E2F78095822388BB7CC025B381E079
S11309C090E002C0880F991FDA95E2F780958223A0
S11309D085BB70C022B381E090E002C0880F991FEC
S11309E0DA95E2F78095822382BB64C04FEF68E01A
S11309F00E941504C13041F028F0C23039F0C330F0
S1130A0039F058C01BBA56C018BA54C015BA52C0EF
S1130A1012BA50C06830B8F54FEF0E941504C130C7
S1130A2089F028F0C230C9F0C33011F143C02BB3B0
S1130A3081E090E002C0880F991FDA95E2F7822BDB
S1130A408BBB38C028B381E090E002C0880F991FA7
S1130A50DA95E2F7822B88BB2DC025B381E090E0C4
S1130A6002C0880F991FDA95E2F7822B85BB22C05A
S1130A7022B381E090E002C0880F991FDA95E2F773
S1130A80822B82BB17C04FEF68E00E941504C1306F
S1130A9049F028F0C23049F0C33051F00BC08FEF59
S1130AA08BBB08C08FEF88BB05C08FEF85BB02C02E
S1130AB08FEF82BBDF91CF910895CF93DF93C82F3F
S1130AC0D62F6830B8F540E00E941504C13089F093
S1130AD028F0C230C9F0C33011F143C02BB381E018
S1130AE090E002C0880F991FDA95E2F7822B8BBB46
S1130AF038C028B381E090E002C0880F991FDA95CE
S1130B00E2F7822B88BB2DC025B381E090E002C0C0
S1130B10880F991FDA95E2F7822B85BB22C022B396
S1130B2081E090E002C0880F991FDA95E2F7822BEA
S1130B3082BB17C040E068E00E941504C13049F050
S1130B4028F0C23049F0C33051F00BC08FEF8BBB9B
S1130B5008C08FEF88BB05C08FEF85BB02C08FEF45
S1130B6082BBDF91CF910895CF93DF93C82FD62F07
S1130B70683078F540E00E941504C13079F028F01F
S1130B80C230A9F0C330E1F038C089B390E002C0AC
S1130B9095958795DA95E2F7817032C086B390E037
S1130BA002C095958795DA95E2F7817029C083B3E1
S1130BB090E002C095958795DA95E2F7817020C0A0
S1130BC080B390E002C095958795DA95E2F781703D
S1130BD017C040E068E00E941504C13041F028F0DD
S1130BE0C23039F0C33039F00AC089B309C086B3C2
S1130BF007C083B305C080B303C080E001C080E0B8
S1130C00DF91CF9108951F920F920FB60F92112486
S1130C104F935F936F937F938F939F93AF93BF9300
S1130C208091E1009091E20001969093E20080931C
S1130C30E100409178005091790060917A007091C0
S1130C407B00413051056105710551F40197F9F4B8
S1130C501092E2001092E1008091F8008CBF17C05E
S1130C608130910521F48091EC008CBF10C0092ED5
S1130C70000CAA0BBB0B481759076A077B0739F40A
S1130C801092E2001092E1008091F8008CBFBF91B5
S1130C90AF919F918F917F916F915F914F910F9041
S1130CA00FBE0F901F9018951F920F920FB60F92C0
S1130CB011244F935F936F937F938F939F93AF937D
S1130CC0BF938091DF009091E00001969093E00043
S1130CD08093DF004091740050917500609176001C
S1130CE070917700413051056105710569F40197F0
S1130CF041F51092E0001092DF008091E80090919D
S1130D00E9009DBD8CBD1DC08130910539F48091F1
S1130D10E4009091E5009DBD8CBD13C0092E000C2C
S1130D20AA0BBB0B481759076A077B0751F41092AB
S1130D30E0001092DF008091E8009091E9009DBDF1
S1130D408CBDBF91AF919F918F917F916F915F9176
S1130D504F910F900FBE0F901F9018951F920F92F6
S1130D600FB60F9211244F935F936F937F938F93DA
S1130D709F93AF93BF938091DD009091DE00019625
S1130D809093DE008093DD004091740050917500D3
S1130D9060917600709177004130510561057105CD
S1130DA069F4019741F51092DE001092DD00809104
S1130DB0E8009091E9009BBD8ABD1DC0813091057A
S1130DC039F48091E4009091E5009BBD8ABD13C085
S1130DD0092E000CAA0BBB0B481759076A077B079F
S1130DE051F41092DE001092DD008091E8009091A1
S1130DF0E9009BBD8ABDBF91AF919F918F917F9177
S1130E006F915F914F910F900FBE0F901F901895A7
S1130E101F920F920FB60F9211244F935F936F930B
S1130E207F938F939F93AF93BF938091DB009091B7
S1130E30DC0001969093DC008093DB00409170000D
S1130E4050917100609172007091730041305105AE
S1130E506105710551F40197F9F41092DC001092C8
S1130E60DB008091F40084BD17C08130910521F42A
S1130E708091F00084BD10C0092E000CAA0BBB0B9E
S1130E80481759076A077B0739F41092DC0010925F
S1130E90DB008091F40084BDBF91AF919F918F914D
S1130EA07F916F915F914F910F900FBE0F901F90A4
S1130EB018951F920F920FB60F9211244F935F93C0
S1130EC06F937F938F939F93AF93BF938091D90038
S1130ED09091DA0001969093DA008093D9004091C2
S1130EE070005091710060917200709173004130F4
S1130EF051056105710551F40197F9F41092DA0076
S1130F001092D9008091F40083BD17C081309105FF
S1130F1021F48091F00083BD10C0092E000CAA0BAF
S1130F20BB0B481759076A077B0739F41092DA009C
S1130F301092D9008091F40083BDBF91AF919F912D
S1130F408F917F916F915F914F910F900FBE0F9092
S1130F501F90189597FB072E16F4009407D077FD81
S1130F6009D00E94EF0707FC05D03EF490958195C7
S1130F709F4F0895709561957F4F0895A1E21A2EB1
S1130F80AA1BBB1BFD010DC0AA1FBB1FEE1FFF1F29
S1130F90A217B307E407F50720F0A21BB30BE40B79
S1130FA0F50B661F771F881F991F1A9469F76095C0
S1130FB07095809590959B01AC01BD01CF0108957A
S1130FC0A29FB001B39FC001A39F700D811D112486
S1130FD0911DB29F700D811D1124911D0895AA1BAE
S1130FE0BB1B51E107C0AA1FBB1FA617B70710F010
S1130FF0A61BB70B881F991F5A95A9F78095909542
S10D1000BC01CD010895F894FFCF60
S113100A31323346343536473738394852304F4906
S113101A010000000100000001000000434F4E548B
S113102A524F4C20504147450041433A3120444FE6
S113103A4F523A32204C3A33200041495220434F0E
S113104A4E444954494F4E00205354525420535449
S113105A5020424B3A4634200020444F4F522043FA
S113106A4F4E54524F4C2000204C494748542D436C
S10B107A4F4E54524F4C00008C
S9030000FC
