:100000000C942E000C9404030C9404030C9404032D
:100010000C9404030C9404030C9404030C94040344
:100020000C9404030C9404030C9404030C94040334
:100030000C9404030C9404030C9404030C94040324
:100040000C9404030C9404030C9404030C94040314
:100050000C9404030060007800060C0011241FBEFD
:10006000CFE5D8E0DEBFCDBFE4E5F0E040E017C06B
:10007000B591A59135912591059107FD0CC09591FC
:100080008591EF01F92FE82F05900D92A217B30784
:10009000D9F7FE0104C01D92A217B307E1F7EB35B3
:1000A000F40731F70E94E1020C945600F894FFCF58
:1000B000813001F130F08230B1F1833009F44CC06D
:1000C0000895433059F42AB381E090E002C0880FCC
:1000D000991F6A95E2F7822B8ABB08952AB381E0C3
:1000E00090E002C0880F991F6A95E2F780958223FD
:1000F0008ABB0895433059F427B381E090E002C0F1
:10010000880F991F6A95E2F7822B87BB089527B362
:1001100081E090E002C0880F991F6A95E2F7809510
:10012000822387BB0895433059F424B381E090E0E3
:1001300002C0880F991F6A95E2F7822B84BB08954D
:1001400024B381E090E002C0880F991F6A95E2F71E
:100150008095822384BB0895433059F421B381E014
:1001600090E002C0880F991F6A95E2F7822B81BB4D
:10017000089521B381E090E002C0880F991F6A952D
:0A018000E2F78095822381BB089509
:10018A00813001F130F08230B1F1833009F44CC092
:10019A000895413059F42BB381E090E002C0880FF2
:1001AA00991F6A95E2F7822B8BBB08952BB381E0E6
:1001BA0090E002C0880F991F6A95E2F78095822322
:1001CA008BBB0895413059F428B381E090E002C016
:1001DA00880F991F6A95E2F7822B88BB089528B386
:1001EA0081E090E002C0880F991F6A95E2F7809536
:1001FA00822388BB0895413059F425B381E090E009
:10020A0002C0880F991F6A95E2F7822B85BB089571
:10021A0025B381E090E002C0880F991F6A95E2F742
:10022A008095822385BB0895413059F422B381E039
:10023A0090E002C0880F991F6A95E2F7822B82BB71
:10024A00089522B381E090E002C0880F991F6A9551
:0A025A00E2F78095822382BB08952D
:1002640043E061E081E00E94580043E062E081E005
:100274000E94580043E063E081E00E9458008BB381
:1002840043E064E00E9458008BB343E065E00E94C1
:1002940058008BB343E066E00E9458008BB343E000
:1002A40067E00E94580083E30E94ED018FE99FE01C
:1002B4000197F1F700C0000082E30E94ED018FE98D
:1002C4009FE00197F1F700C0000088E20E94ED0171
:1002D4008FE99FE00197F1F700C000008CE00E94D5
:1002E400ED018FE99FE00197F1F700C0000081E084
:1002F4000E94ED018FE39FE10197F1F700C0000038
:1003040087E00E94ED018FE99FE00197F1F700C0BB
:10031400000082E00E94ED018FE39FE10197F1F775
:0603240000C00000089576
:10032A00DF92EF92FF920F931F93CF93DF93D0E068
:10033A000F2EF4E2DF2EF02D3FC0ED2EF12CF70147
:10034A00EC58FF4F608140E081E00E94C500C0E0A8
:10035A0028C00C2F10E0F801E059FF4F608182E0BD
:10036A000E94B40281111CC02FE785EB91E0215055
:10037A0080409040E1F700C00000F801E059FF4FCB
:10038A00608182E00E94B40281110AC0F801EE0F76
:10039A00FF1FEE0FFF1FE05AFF4FEE0DFF1DD0802B
:1003AA00CF5FC430B0F2F701EC58FF4F608141E0F3
:1003BA0081E00E94C500DF5FD43008F4BECF8D2DE6
:1003CA00DF91CF911F910F91FF90EF90DF900895E9
:1003DA00CF93C82F40E061E081E00E94C50040E071
:1003EA0062E081E00E94C50040E063E081E00E9493
:1003FA00C5008FE99FE00197F1F700C0000041E0D6
:10040A0063E081E00E94C5008BB39C2F907F8F70C0
:10041A00892B8BBB40E063E081E00E94C5008FE935
:10042A009FE00197F1F700C0000041E063E081E03E
:10043A000E94C50020E1C29FC00111249BB39F7096
:10044A00892B8BBB40E063E081E00E94C5008FE905
:0E045A009FE00197F1F700C00000CF910895D8
:10046800CF93C82F41E061E081E00E94C50040E0E1
:1004780062E081E00E94C50040E063E081E00E9404
:10048800C5008FE99FE00197F1F700C0000041E047
:1004980063E081E00E94C5008BB39C2F907F8F7032
:1004A800892B8BBB40E063E081E00E94C5008FE9A7
:1004B8009FE00197F1F700C0000041E063E081E0B0
:1004C8000E94C50020E1C29FC00111249BB39F7008
:1004D800892B8BBB40E063E081E00E94C5008FE977
:0E04E8009FE00197F1F700C00000CF9108954A
:1004F60043E064E081E00E94580043E065E081E06B
:100506000E94580043E066E081E00E94580043E004
:1005160067E081E00E94580041E064E081E00E94CB
:10052600C50041E065E081E00E94C50041E066E06B
:1005360081E00E94C50041E067E081E00E94C500BD
:1005460063E082E00E94F50264E082E00E94F50228
:1005560065E082E00E94F50266E082E00E94F50214
:020566000895F6
:10056800813079F028F08230A9F08330E1F024C09E
:1005780089B390E002C0959587956A95E2F78170F6
:10058800089586B390E002C0959587956A95E2F73D
:100598008170089583B390E002C0959587956A9518
:1005A800E2F78170089580B390E002C09595879531
:0A05B8006A95E2F781700895089536
:1005C2000E947B020E9432010E9495018432E1F373
:1005D2000E9434022FEF83EC99E02150804090403A
:0805E200E1F700C00000F0CFBA
:1005EA00CF93DF93C82FD62F42E00E94580041E0F4
:0E05FA006D2F8C2F0E94C500DF91CF910895C8
:040608000C9400004E
:10060C003132334134353642373839432A3023447A
:04061C0003040506C8
:0406200004050607C0
:00000001FF
