:100000000C942E000C9497010C9497010C9497017A
:100010000C9497010C9497010C9497010C94970100
:100020000C9497010C9497010C9497010C949701F0
:100030000C9497010C9497010C9497010C949701E0
:100040000C9497010C9497010C9497010C949701D0
:100050000C9497010060007800033C0011241FBE3F
:10006000CFE5D8E0DEBFCDBFE4E5F0E040E017C06B
:10007000B591A59135912591059107FD0CC09591FC
:100080008591EF01F92FE82F05900D92A217B30784
:10009000D9F7FE0104C01D92A217B307E1F7EB35B3
:1000A000F40731F70E9490010C948501F894FFCF7A
:1000B000813001F130F08230B1F1833009F44CC06D
:1000C0000895413059F42BB381E090E002C0880FCD
:1000D000991F6A95E2F7822B8BBB08952BB381E0C1
:1000E00090E002C0880F991F6A95E2F780958223FD
:1000F0008BBB0895413059F428B381E090E002C0F1
:10010000880F991F6A95E2F7822B88BB089528B360
:1001100081E090E002C0880F991F6A95E2F7809510
:10012000822388BB0895413059F425B381E090E0E3
:1001300002C0880F991F6A95E2F7822B85BB08954C
:1001400025B381E090E002C0880F991F6A95E2F71D
:100150008095822385BB0895413059F422B381E014
:1001600090E002C0880F991F6A95E2F7822B82BB4C
:10017000089522B381E090E002C0880F991F6A952C
:0A018000E2F78095822382BB089508
:10018A00DF92EF92FF920F931F93CF93DF93D0E00A
:10019A000F2EF4E2DF2EF02D3FC0ED2EF12CF701E9
:1001AA00EC58FF4F608140E081E00E945800C0E0B7
:1001BA0028C00C2F10E0F801E059FF4F608182E05F
:1001CA000E94540181111CC02FEF81EE94E021504E
:1001DA0080409040E1F700C00000F801E059FF4F6D
:1001EA00608182E00E94540181110AC0F801EE0F79
:1001FA00FF1FEE0FFF1FE05AFF4FEE0DFF1DD080CD
:10020A00CF5FC430B0F2F701EC58FF4F608141E094
:10021A0081E00E945800DF5FD43008F4BECF8D2DF4
:10022A00DF91CF911F910F91FF90EF90DF9008958A
:10023A00D82F40E061E081E00E94580041E062E08E
:10024A0081E00E945800CDECDC9FC12D1124C69597
:10025A00C695C6958C2F8295807F8BBB8FE39FE1D5
:10026A000197F1F700C0000041E061E081E00E94DF
:10027A00580040E062E081E00E945800CC0F8C2FC9
:10028A00880F880FC80F8D2F8C1B8295807F8BBBA0
:0E029A008FE39FE10197F1F700C00000CACF8B
:1002A800813081F028F08230B9F08330F9F027C02E
:1002B80089B390E002C0959587956A95E2F7982FE3
:1002C80091701DC086B390E002C0959587956A9598
:1002D800E2F7982F917013C083B390E002C0959510
:1002E80087956A95E2F7982F917009C080B390E0DE
:1002F80002C0959587956A95E2F7982F9170892F96
:02030800089556
:10030A00EC010E949C010E949B01CE010E949D016A
:06031A00CE010E949901D2
:0E0320000E94C5008432E1F380530E941D014B
:04032E000C9400002B
:040332000E945600CF
:02033600089528
:02033800089526
:02033A00089524
:10033C003132334134353642373839432A3023444D
:04034C00030405069B
:040350000405060793
:00000001FF
