:100000000C942A000C945F000C945F000C945F0029
:100010000C945F000C945F000C945F000C945F00E4
:100020000C945F000C945F000C945F000C945F00D4
:100030000C945F000C945F000C945F000C945F00C4
:100040000C945F000C945F000C945F000C945F00B4
:100050000C945F0011241FBECFE5D8E0DEBFCDBFFA
:0C0060000E9436000C945400F894FFCF6E
:10006C0084B3846084BB84B3806884BB81B38860B0
:10007C0081BB95B384E0892785BB85B3805885BB4C
:10008C0092B388E0892782BB2FEF84E39CE0215058
:0C009C0080409040E1F700C00000EBCF76
:1000A800EC010E9464000E946300CE010E9465007A
:0600B800CE010E94610070
:0400BE000C9400009E
:0400C2000E94340064
:0200C60008959B
:0200C800089599
:0200CA00089597
:00000001FF
